:020000040800F2
:100000003008002089010008E5010008E50100082A
:10001000E5010008E5010008E50100080000000016
:10002000000000000000000000000000E5010008E2
:10003000E501000800000000E5010008E5010008F6
:10004000E5010008E5010008E5010008E5010008F8
:10005000E5010008E5010008E5010008E5010008E8
:10006000E5010008E5010008E5010008E5010008D8
:10007000E5010008E5010008E5010008E5010008C8
:10008000E5010008E5010008E5010008E5010008B8
:10009000E5010008E5010008E5010008E5010008A8
:1000A000E5010008E5010008E5010008E501000898
:1000B0004107000801070008E5010008E501000804
:1000C000E5010008E5010008E5010008E501000878
:1000D000E5010008E5010008E5010008E501000868
:1000E000E5010008E5010008E5010008E501000858
:1000F000E5010008E5010008E5010008E501000848
:10010000E5010008E5010008E5010008E501000837
:10011000E5010008E5010008E5010008E501000827
:10012000E5010008E5010008E5010008E501000817
:10013000E5010008E5010008E5010008E501000807
:10014000E5010008E5010008E5010008E5010008F7
:10015000E5010008E5010008E5010008E5010008E7
:10016000E5010008E5010008E5010008E5010008D7
:10017000E5010008E5010008E5010008E5010008C7
:10018000E5010008E501000880B582B000AF104B22
:100190007B60104B3B6007E03B681A1D3A607A6851
:1001A000111D796012681A603B680B4A9342F3D3C1
:1001B0000A480B494FF000028842B8BF40F8042BB0
:1001C000FADB00F013F800BF0837BD4680BD00BF62
:1001D0003014000800000020080000200800002063
:1001E0003000002080B400AFFEE700BF80B500AF54
:1001F00000F0E4FD0121022000F098FC012108201C
:1002000000F094FC0121102000F090FC012101205D
:1002100000F0AAFC0121022000F0A6FC012104202C
:1002200000F0A2FC4FF4C06000F070FE00F024F972
:10023000FEE700BF80B584B000AF40F2A313BB60FF
:1002400042F20F73BB800023BB810023FB803B1D68
:100250001946054800F0CCFE0121034800F032FFAA
:1002600000BF1037BD4680BD0004004080B584B09B
:1002700000AF2923BB601323BB800023BB81002375
:10028000FB803B1D19464FF0804000F0B1FE01217C
:100290004FF0804000F016FF00BF1037BD4680BD14
:1002A00080B582B000AF1D233B7100237B7100231A
:1002B000BB710123FB713B1D184600F039FE012183
:1002C000114801F0A5F8012201210F4801F052F870
:1002D0001C233B7000237B700023BB700123FB7049
:1002E0003B46184600F024FE01214FF0804001F00B
:1002F0008FF8012201214FF0804001F03BF800BF50
:100300000837BD4680BD00BF0004004080B582B004
:1003100000AF4FF470433B6001233B710023BB717E
:1003200003237B710023FB713B4619460D4800F007
:1003300039FC0D4B41F6F0721A600B4B01221A7119
:10034000094B00229A71084B03225A71064B002276
:10035000DA710549054800F025FC00BF0837BD46A5
:1003600080BD00BF000C02401C00002000100240B5
:1003700080B58CB000AF786039607B68BB623B6849
:100380009BB2BB840023BB850023FB8407F12403BD
:100390001946364800F02CFE0121344800F092FE48
:1003A0004FF47C73FB61012387F82030002387F82A
:1003B0002230032387F82130002387F8233007F108
:1003C0001C0319462A4800F0EDFB60233B81012302
:1003D0007B8100233B610023BB8207F108031946A0
:1003E000224800F08FFE0821204800F08BFF0222F7
:1003F00006211F4800F09AFC4023FB61022387F886
:10040000203007F11C031946194800F0CBFB07F117
:1004100008031946154800F0EFFE0821134800F0C4
:100420008DFF02220821124800F080FC4FF48073F7
:10043000FB61022387F8203007F11C0319460C48A2
:1004400000F0B0FBA0210A4800F062FC4FF40071FC
:10045000074800F05DFC1021054800F04BFC054BFF
:1004600003221A6000BF3037BD4680BD000800403F
:10047000000402400400002080B500AFFFF746FFF3
:10048000FFF7D8FEFFF7F2FEFFF70AFF29216320EE
:10049000FFF76EFF00BF80BD80B500AF04210020D4
:1004A00000F0C0F80521002000F0BCF800BF80BDBE
:1004B00080B500AF464B1B79002B18D0444BDB783E
:1004C000002B14D1424B5B79002B10D1042100206A
:1004D00000F0A8F80521002000F0A4F804210F2066
:1004E00000F078F805210F2000F074F86DE0384B2B
:1004F000DB78002B0ED0364B1B7A002B0AD1FFF78E
:10050000CBFF05210A2000F065F80421142000F03B
:1005100061F85AE02E4B5B79002B0ED02C4B1B78E8
:10052000002B0AD1FFF7B8FF04210A2000F052F88F
:100530000521142000F04EF847E0254B9B78002B56
:100540000ED0234B1B7A002B0AD1FFF7A5FF052104
:10055000022000F03FF80421192000F03BF834E0BD
:100560001B4B9B79002B0ED0194B1B78002B0AD10B
:10057000FFF792FF0421022000F02CF8052119203A
:1005800000F028F821E0124B1B78002B0CD004213E
:10059000012000F047F805211E2000F01BF804217F
:1005A000142000F017F810E0094B1B7A002B0CD038
:1005B0000521012000F036F804211E2000F00AF881
:1005C0000521142000F006F8FFE700BF80BD00BF42
:1005D0001000002080B483B000AF786039603B68C1
:1005E000042B02D0052B0BD015E00D4A7B68193384
:1005F0005F2B02DC7B68193300E0462353630AE07B
:10060000074A7B6819335F2B02DC7B68193300E0F3
:100610004623D36300BF00BF0C37BD4680BC704784
:100620000008004080B582B000AF786039603B6858
:10063000042B02D0052B28D05BE07B68012B11D066
:10064000022B1CD0002B00D053E02B4B1B68002B3F
:1006500048D0A021294800F05BFB8021274800F00A
:1006600049FB11E0244B1B68012B3DD0A0212348FE
:1006700000F04EFB2021214800F03CFB04E0A021CB
:100680001E4800F045FB00BF33E07B68012B12D011
:10069000022B1FD0002B00D02BE0174B1B68002B28
:1006A00024D04FF40471154800F032FB1021134898
:1006B00000F020FB14E0104B1B68012B18D04FF406
:1006C00004710E4800F024FB4FF400710B4800F059
:1006D00011FB05E04FF40471084800F019FB00BF5E
:1006E00000BF06E000BF04E000BF02E000BF00E082
:1006F00000BF0837BD4680BD040000200004024052
:1007000080B500AF01210C4800F058FE0346002BD5
:100710000FD0FFF7CDFE00F0D1F9084B00221A7080
:1007200001214FF0804000F0CDFC0121024800F093
:100730006FFE00BF80BD00BF000400400C00002021
:1007400080B500AF01214FF0804000F037FE034636
:10075000002B2AD0164B1B68022B12D1154B0022FE
:100760001A71144B01229A71124B03225A71114BC8
:100770000022DA710F49104800F014FA0F4B0022E2
:100780001A600B4B1B680133094A1360084B1B6846
:10079000022B05DD094B1B68002B01D100F010F87E
:1007A00001214FF0804000F033FE00BF80BD00BF4C
:1007B000080000201C000020001002400000002063
:1007C00080B500AFB04B1B78082B00F2448101A22A
:1007D00052F823F0F90700083B0800087D080008DC
:1007E000BF08000803090008470900088B09000832
:1007F000CD0900080F0A00081021A44800F060FA93
:100800000346002B40F02D81A14B1B68184600F0D9
:100810007DF90346002B03D09E4B01221A7102E0A2
:100820009C4B00221A719B4B1A799B4B1A70964B6A
:1008300001221A7000F042F913E14021934800F0C0
:100840003FFA0346002B40F00E81914B1B6818467F
:1008500000F05CF90346002B03D08E4B0122DA70C6
:1008600002E08C4B0022DA708A4BDA788B4B1A70DC
:10087000854B02221A7000F021F9F4E02021834810
:1008800000F01EFA0346002B40F0EF80804B1B68FF
:10089000184600F03BF90346002B03D07D4B0122A4
:1008A0005A7102E07B4B00225A717A4B5A797C4B89
:1008B0001A70754B03221A7000F000F9D5E04FF45E
:1008C0000071724800F0FCF90346002B40F0CF8025
:1008D0006F4B1B68184600F019F90346002B03D034
:1008E0006C4B01229A7002E06A4B00229A70694BAD
:1008F0009A786C4B1A70644B04221A7000F0DEF880
:10090000B5E04FF48061614800F0DAF90346002B4E
:1009100040F0AF805E4B1B68184600F0F7F80346C6
:10092000002B03D05B4B01229A7102E0594B00224D
:100930009A71584B9A795C4B1A70534B07221A7074
:1009400000F0BCF895E08021504800F0B9F903466A
:10095000002B40F090804E4B1B68184600F0D6F8F4
:100960000346002B03D04B4B01225A7002E0494B47
:1009700000225A70464B1B68DAB24C4B1A70424B3D
:1009800006221A7000F09AF875E04FF480513F4843
:1009900000F096F90346002B6FD13D4B1B681846BB
:1009A00000F0B4F80346002B03D03A4B0122DA7171
:1009B00002E0384B0022DA71364BDA793C4B1A7080
:1009C000314B07221A7000F079F856E04FF480712D
:1009D0002E4800F075F90346002B50D12C4B1B68B4
:1009E000184600F093F80346002B03D0294B012250
:1009F0001A7002E0274B00221A70264B1A782D4BF2
:100A00001A70214B08221A7000F058F837E04FF4A2
:100A100000611E4800F054F90346002B31D11C4BF5
:100A20001B68184600F072F80346002B03D0194BE0
:100A300001221A7202E0174B00221A72154B1A7A21
:100A40001D4B1A70104B00221A7000214FF080408D
:100A500000F038FB15E000214FF0804000F032FB41
:100A600010E000BF0EE000BF0CE000BF0AE000BFD6
:100A700008E000BF06E000BF04E000BF02E000BFE6
:100A800000E000BF00BF80BD0C000020001002404D
:100A9000080000201000002028000020290000206D
:100AA000240000202C0000202A0000202B00002021
:100AB00027000020260000202500002080B500AF80
:100AC0000E4B01221A710D4B00229A710B4B03221F
:100AD0005A710A4B0022DA710849094800F062F89D
:100AE000084B01221A60084B00221A6041F6F0718F
:100AF000034800F0FFF800BF80BD00BF1C000020CD
:100B000000100240000000200800002080B483B0E4
:100B100000AF78607B680F2BCCBF01230023DBB2D2
:100B200018460C37BD4680BC704700BF80B483B008
:100B300000AF78600B46FB70FB78002B06D00949AC
:100B4000084B1A6B7B6813430B6306E00549054BA2
:100B50001A6B7B68DB4313400B6300BF0C37BD4649
:100B600080BC70470038024080B483B000AF78602A
:100B70000B46FB70FB78002B06D00949084B1A6C1A
:100B80007B6813430B6406E00549054B1A6C7B68D0
:100B9000DB4313400B6400BF0C37BD4680BC70477D
:100BA0000038024080B487B000AF7860396000231D
:100BB0007B6100233B610023FB6000237B6176E0C7
:100BC00001227B6902FA03F33B613B681A683B69C7
:100BD0001340FB60FA683B699A4265D17B681A68EA
:100BE0007B695B00032101FA03F3DB431A407B6856
:100BF0001A607B681A683B681B7919467B695B0041
:100C000001FA03F31A437B681A603B681B79012BD6
:100C100003D03B681B79022B2ED17B689A687B69D5
:100C20005B00032101FA03F3DB431A407B689A60FF
:100C30007B689A683B685B7919467B695B0001FABF
:100C400003F31A437B689A607B685A687B699BB29E
:100C5000194601238B40DB431A407B685A607B684E
:100C60005B683A68927911467A6992B201FA02F2A7
:100C700092B21A437B685A607B68DA687B699BB2E0
:100C80005B00032101FA03F3DB431A407B68DA605F
:100C90007B68DA683B68DB7919467B695B0001FA9F
:100CA00003F31A437B68DA607B6901337B617B69FC
:100CB0000F2B85D900BF1C37BD4680BC704700BFD5
:100CC00080B485B000AF78600B467B800023FB7357
:100CD0007B681A697B881340002B02D00123FB73C9
:100CE00001E00023FB73FB7B18461437BD4680BC34
:100CF000704700BF80B483B000AF78600B467B8044
:100D00007B687A881A8300BF0C37BD4680BC704769
:100D100080B483B000AF78600B467B807B687A88B4
:100D20005A8300BF0C37BD4680BC704780B485B085
:100D300000AF78600B467B8013467B700023FB601E
:100D40000023BB607A787B8803F007039B0002FADC
:100D500003F3FB607B88DB089BB218467B88DB08CB
:100D60009BB21A467B68083253F822207B8803F036
:100D700007039B000F2101FA03F3DB4302EA03019F
:100D80007B6800F1080243F822107B88DB089BB2E5
:100D90001A467B68083253F82220FB681343BB6075
:100DA0007B88DB089BB21A467B680832B96843F837
:100DB000221000BF1437BD4680BC704780B500AF1D
:100DC000124A124B1B6843F0010313600F4B0022C1
:100DD0009A600E4A0D4B1B6823F0847323F4803312
:100DE00013600A4B0A4A5A60084A084B1B6823F4EE
:100DF00080231360054B0022DA6000F00DF8054BEC
:100E00004FF000629A6000BF80BD00BF0038024012
:100E10001030002400ED00E080B483B000AF002368
:100E20007B6000233B60354A344B1B6843F48033BE
:100E30001360324B1B6803F400333B607B68013363
:100E40007B603B68002B03D17B68B3F5A06FF0D1CA
:100E50002A4B1B6803F40033002B02D001233B60B4
:100E600001E000233B603B68012B42D1234A234B26
:100E70001B6C43F080531364214A214B1B6843F4DD
:100E8000804313601D4A1D4B9B6893601B4A1B4B9C
:100E90009B6843F400439360184A184B9B6843F4E3
:100EA000A0539360154B174A5A60144A134B1B68A2
:100EB00043F08073136000BF104B1B6803F0007396
:100EC000002BF9D0104B40F205621A600B4A0B4B15
:100ED0009B6823F003039360084A084B9B6843F028
:100EE0000203936000BF054B9B6803F00C03082BC3
:100EF000F9D100BF0C37BD4680BC704700380240B6
:100F00000070004008544007003C024080B483B0A9
:100F100000AF7860054A7B6843F0BF6343F4003359
:100F2000D36000BF0C37BD4680BC704700ED00E0C9
:100F300080B485B000AF78600023FB730023BB73DF
:100F40000F237B737B68DB78002B38D0264BDB6864
:100F5000DB4303F4E0631B0AFB73FB7BC3F1040375
:100F6000BB737A7BFB7B42FA03F37B737B685B7812
:100F70001A46BB7B02FA03F3FB737B689A787B7B90
:100F80001340DAB2FB7B1343FB73FB7B1B01FB7348
:100F9000164A7B681B781344FA7B83F80023134AB4
:100FA0007B681B785B09DBB218467B681B7803F013
:100FB0001F03012101FA03F342F820300FE00B492F
:100FC0007B681B785B09DBB218467B681B7803F0F3
:100FD0001F0301229A4000F1200341F8232000BFA3
:100FE0001437BD4680BC704700ED00E000E100E032
:100FF00080B485B000AF786039600023FB817B68E6
:101000001B88FB817B68284A934213D07B68274A60
:1010100093420FD07B68B3F1804F0BD07B68244A9A
:10102000934207D07B68234A934203D07B68224ACD
:10103000934208D1FB8923F07003FB813B685A88F7
:10104000FB891343FB817B681C4A93420CD07B686D
:101050001B4A934208D0FB8923F44073FB813B6811
:101060001A89FB891343FB817B68FA891A803B68E4
:101070005A687B68DA623B681A887B681A857B68E5
:10108000094A934203D07B68084A934204D13B68E3
:101090009B7A9AB27B681A867B6801229A8200BF8B
:1010A0001437BD4680BC7047000001400004014079
:1010B0000004004000080040000C00400010004008
:1010C0000014004080B483B000AF78600B46FB7022
:1010D000FB78002B08D07B681B889BB243F0010390
:1010E0009AB27B681A8007E07B681B889BB223F06A
:1010F00001039AB27B681A8000BF0C37BD4680BCE2
:10110000704700BF80B485B000AF786039600023BD
:101110007B810023FB810023BB817B681B8C9BB2FE
:1011200023F001039AB27B681A847B681B8CFB81D5
:101130007B689B88BB817B681B8B7B817B8923F0D1
:1011400070037B817B8923F003037B813B681A88D2
:101150007B8913437B81FB8923F00203FB813B687E
:101160009A89FB891343FB813B685A88FB891343A7
:10117000FB817B681E4A934203D07B681D4A9342E1
:1011800023D1FB8923F00803FB813B68DA89FB89C3
:101190001343FB81FB8923F00403FB813B689A889E
:1011A000FB891343FB81BB8923F48073BB81BB891B
:1011B00023F40073BB813B681A8ABB891343BB814C
:1011C0003B685A8ABB891343BB817B68BA899A8082
:1011D0007B687A891A833B689A687B685A637B6864
:1011E000FA891A8400BF1437BD4680BC704700BF1F
:1011F000000001400004014080B485B000AF786079
:10120000396000237B810023FB810023BB817B6845
:101210001B8C9BB223F480739AB27B681A847B6820
:101220001B8CFB817B689B88BB817B689B8B7B8154
:101230007B8923F070037B817B8923F003037B810F
:101240003B681A887B8913437B81FB8923F40073F5
:10125000FB813B689B891B029AB2FB891343FB818C
:101260003B685B881B029AB2FB891343FB817B6856
:10127000224A934203D07B68214A93422BD1FB89B7
:1012800023F40063FB813B68DB891B029AB2FB8974
:101290001343FB81FB8923F48063FB813B689B88BC
:1012A0001B029AB2FB891343FB81BB8923F4805351
:1012B000BB81BB8923F40053BB813B681B8A1B01A4
:1012C0009AB2BB891343BB813B685B8A1B019AB20C
:1012D000BB891343BB817B68BA899A807B687A8912
:1012E0009A833B689A687B68DA637B68FA891A8418
:1012F00000BF1437BD4680BC704700BF00000140EE
:101300000004014080B485B000AF78600B467B805C
:101310000023FB817B681B8BFB81FB8923F0080387
:10132000FB81FA897B881343FB817B68FA891A83E6
:1013300000BF1437BD4680BC704700BF80B485B085
:1013400000AF78600B467B800023FB817B689B8B22
:10135000FB81FB8923F00803FB81FA897B88134317
:10136000FB817B68FA899A8300BF1437BD4680BC35
:10137000704700BF80B483B000AF78600B467B80BD
:1013800013467B707B78002B08D07B689B899AB2D0
:101390007B8813439AB27B689A8109E07B689B89BA
:1013A0009AB27B88DB439BB213409AB27B689A81E6
:1013B00000BF0C37BD4680BC704700BF80B485B00D
:1013C00000AF78600B467B800023FB730023BB815A
:1013D00000237B817B681B8A9AB27B881340BB8188
:1013E0007B689B899AB27B8813407B81BB89002BE9
:1013F00005D07B89002B02D00123FB7301E0002381
:10140000FB73FB7B18461437BD4680BC704700BF9A
:1014100080B483B000AF78600B467B807B88DB4371
:101420009AB27B681A8200BF0C37BD4680BC7047F9
:081430000100000003000000B0
:0400000508000000EF
:00000001FF
